{
  "contractName": "AnimalCertificate",
  "abi": [
    {
      "anonymous": false,
      "inputs": [
        {
          "indexed": true,
          "internalType": "address",
          "name": "owner",
          "type": "address"
        },
        {
          "indexed": true,
          "internalType": "address",
          "name": "approved",
          "type": "address"
        },
        {
          "indexed": true,
          "internalType": "uint256",
          "name": "tokenId",
          "type": "uint256"
        }
      ],
      "name": "Approval",
      "type": "event"
    },
    {
      "anonymous": false,
      "inputs": [
        {
          "indexed": true,
          "internalType": "address",
          "name": "owner",
          "type": "address"
        },
        {
          "indexed": true,
          "internalType": "address",
          "name": "operator",
          "type": "address"
        },
        {
          "indexed": false,
          "internalType": "bool",
          "name": "approved",
          "type": "bool"
        }
      ],
      "name": "ApprovalForAll",
      "type": "event"
    },
    {
      "anonymous": false,
      "inputs": [
        {
          "indexed": true,
          "internalType": "address",
          "name": "from",
          "type": "address"
        },
        {
          "indexed": true,
          "internalType": "address",
          "name": "to",
          "type": "address"
        },
        {
          "indexed": true,
          "internalType": "uint256",
          "name": "tokenId",
          "type": "uint256"
        }
      ],
      "name": "Transfer",
      "type": "event"
    },
    {
      "inputs": [
        {
          "internalType": "uint256",
          "name": "_tokenIdFemale",
          "type": "uint256"
        }
      ],
      "name": "abortedPregnancy",
      "outputs": [],
      "stateMutability": "nonpayable",
      "type": "function"
    },
    {
      "inputs": [
        {
          "internalType": "uint256",
          "name": "_tokenId",
          "type": "uint256"
        },
        {
          "internalType": "enum AnimalCertificate.Disease",
          "name": "_disease",
          "type": "uint8"
        }
      ],
      "name": "addDisease",
      "outputs": [],
      "stateMutability": "nonpayable",
      "type": "function"
    },
    {
      "inputs": [
        {
          "internalType": "address",
          "name": "to",
          "type": "address"
        },
        {
          "internalType": "uint256",
          "name": "tokenId",
          "type": "uint256"
        }
      ],
      "name": "approve",
      "outputs": [],
      "stateMutability": "nonpayable",
      "type": "function"
    },
    {
      "inputs": [
        {
          "internalType": "uint256",
          "name": "_tokenId",
          "type": "uint256"
        },
        {
          "internalType": "int256",
          "name": "_amountMale",
          "type": "int256"
        },
        {
          "internalType": "int256",
          "name": "_amountFemale",
          "type": "int256"
        },
        {
          "internalType": "enum AnimalCertificate.Color",
          "name": "_furColor",
          "type": "uint8"
        }
      ],
      "name": "birth",
      "outputs": [],
      "stateMutability": "nonpayable",
      "type": "function"
    },
    {
      "inputs": [
        {
          "internalType": "uint256",
          "name": "_tokenIdFemale",
          "type": "uint256"
        },
        {
          "internalType": "uint256",
          "name": "_tokenIdMale",
          "type": "uint256"
        }
      ],
      "name": "confirmPregnancy",
      "outputs": [],
      "stateMutability": "nonpayable",
      "type": "function"
    },
    {
      "inputs": [
        {
          "internalType": "uint256",
          "name": "_tokenId",
          "type": "uint256"
        },
        {
          "internalType": "uint256",
          "name": "_dateOfDeath",
          "type": "uint256"
        }
      ],
      "name": "death",
      "outputs": [],
      "stateMutability": "nonpayable",
      "type": "function"
    },
    {
      "inputs": [
        {
          "internalType": "uint256",
          "name": "_tokenIdFemale",
          "type": "uint256"
        },
        {
          "internalType": "uint256",
          "name": "_tokenIdMale",
          "type": "uint256"
        }
      ],
      "name": "mate",
      "outputs": [],
      "stateMutability": "nonpayable",
      "type": "function"
    },
    {
      "inputs": [
        {
          "internalType": "enum AnimalCertificate.Gender",
          "name": "_gender",
          "type": "uint8"
        },
        {
          "internalType": "enum AnimalCertificate.Species",
          "name": "_species",
          "type": "uint8"
        },
        {
          "internalType": "string",
          "name": "_breed",
          "type": "string"
        },
        {
          "internalType": "uint256",
          "name": "_dateOfBirth",
          "type": "uint256"
        },
        {
          "internalType": "enum AnimalCertificate.Disease[]",
          "name": "_diseases",
          "type": "uint8[]"
        },
        {
          "internalType": "enum AnimalCertificate.Color",
          "name": "_furColor",
          "type": "uint8"
        }
      ],
      "name": "mint",
      "outputs": [],
      "stateMutability": "nonpayable",
      "type": "function"
    },
    {
      "inputs": [
        {
          "internalType": "address",
          "name": "from",
          "type": "address"
        },
        {
          "internalType": "address",
          "name": "to",
          "type": "address"
        },
        {
          "internalType": "uint256",
          "name": "tokenId",
          "type": "uint256"
        }
      ],
      "name": "safeTransferFrom",
      "outputs": [],
      "stateMutability": "nonpayable",
      "type": "function"
    },
    {
      "inputs": [
        {
          "internalType": "address",
          "name": "from",
          "type": "address"
        },
        {
          "internalType": "address",
          "name": "to",
          "type": "address"
        },
        {
          "internalType": "uint256",
          "name": "tokenId",
          "type": "uint256"
        },
        {
          "internalType": "bytes",
          "name": "data",
          "type": "bytes"
        }
      ],
      "name": "safeTransferFrom",
      "outputs": [],
      "stateMutability": "nonpayable",
      "type": "function"
    },
    {
      "inputs": [
        {
          "internalType": "address",
          "name": "operator",
          "type": "address"
        },
        {
          "internalType": "bool",
          "name": "approved",
          "type": "bool"
        }
      ],
      "name": "setApprovalForAll",
      "outputs": [],
      "stateMutability": "nonpayable",
      "type": "function"
    },
    {
      "inputs": [
        {
          "internalType": "address",
          "name": "from",
          "type": "address"
        },
        {
          "internalType": "address",
          "name": "to",
          "type": "address"
        },
        {
          "internalType": "uint256",
          "name": "tokenId",
          "type": "uint256"
        }
      ],
      "name": "transferFrom",
      "outputs": [],
      "stateMutability": "nonpayable",
      "type": "function"
    },
    {
      "inputs": [],
      "stateMutability": "nonpayable",
      "type": "constructor"
    },
    {
      "inputs": [
        {
          "internalType": "uint256",
          "name": "",
          "type": "uint256"
        }
      ],
      "name": "animals",
      "outputs": [
        {
          "internalType": "uint256",
          "name": "id",
          "type": "uint256"
        },
        {
          "internalType": "uint256",
          "name": "mother",
          "type": "uint256"
        },
        {
          "internalType": "uint256",
          "name": "father",
          "type": "uint256"
        },
        {
          "internalType": "uint256",
          "name": "matePartner",
          "type": "uint256"
        },
        {
          "internalType": "bool",
          "name": "pregnant",
          "type": "bool"
        },
        {
          "internalType": "enum AnimalCertificate.Species",
          "name": "species",
          "type": "uint8"
        },
        {
          "internalType": "string",
          "name": "breed",
          "type": "string"
        },
        {
          "internalType": "enum AnimalCertificate.Gender",
          "name": "gender",
          "type": "uint8"
        },
        {
          "internalType": "uint256",
          "name": "dateOfBirth",
          "type": "uint256"
        },
        {
          "internalType": "uint256",
          "name": "dateOfDeath",
          "type": "uint256"
        },
        {
          "internalType": "enum AnimalCertificate.Color",
          "name": "furColor",
          "type": "uint8"
        }
      ],
      "stateMutability": "view",
      "type": "function"
    },
    {
      "inputs": [
        {
          "internalType": "address",
          "name": "owner",
          "type": "address"
        }
      ],
      "name": "balanceOf",
      "outputs": [
        {
          "internalType": "uint256",
          "name": "",
          "type": "uint256"
        }
      ],
      "stateMutability": "view",
      "type": "function"
    },
    {
      "inputs": [
        {
          "internalType": "uint256",
          "name": "_id",
          "type": "uint256"
        }
      ],
      "name": "getAnimal",
      "outputs": [
        {
          "components": [
            {
              "internalType": "uint256",
              "name": "id",
              "type": "uint256"
            },
            {
              "internalType": "uint256",
              "name": "mother",
              "type": "uint256"
            },
            {
              "internalType": "uint256",
              "name": "father",
              "type": "uint256"
            },
            {
              "internalType": "uint256",
              "name": "matePartner",
              "type": "uint256"
            },
            {
              "internalType": "bool",
              "name": "pregnant",
              "type": "bool"
            },
            {
              "internalType": "enum AnimalCertificate.Species",
              "name": "species",
              "type": "uint8"
            },
            {
              "internalType": "string",
              "name": "breed",
              "type": "string"
            },
            {
              "internalType": "enum AnimalCertificate.Gender",
              "name": "gender",
              "type": "uint8"
            },
            {
              "internalType": "uint256[]",
              "name": "diseases",
              "type": "uint256[]"
            },
            {
              "internalType": "uint256",
              "name": "dateOfBirth",
              "type": "uint256"
            },
            {
              "internalType": "uint256",
              "name": "dateOfDeath",
              "type": "uint256"
            },
            {
              "internalType": "enum AnimalCertificate.Color",
              "name": "furColor",
              "type": "uint8"
            }
          ],
          "internalType": "struct AnimalCertificate.Animal",
          "name": "",
          "type": "tuple"
        }
      ],
      "stateMutability": "view",
      "type": "function"
    },
    {
      "inputs": [
        {
          "internalType": "uint256",
          "name": "tokenId",
          "type": "uint256"
        }
      ],
      "name": "getApproved",
      "outputs": [
        {
          "internalType": "address",
          "name": "",
          "type": "address"
        }
      ],
      "stateMutability": "view",
      "type": "function"
    },
    {
      "inputs": [
        {
          "internalType": "address",
          "name": "owner",
          "type": "address"
        },
        {
          "internalType": "address",
          "name": "operator",
          "type": "address"
        }
      ],
      "name": "isApprovedForAll",
      "outputs": [
        {
          "internalType": "bool",
          "name": "",
          "type": "bool"
        }
      ],
      "stateMutability": "view",
      "type": "function"
    },
    {
      "inputs": [],
      "name": "name",
      "outputs": [
        {
          "internalType": "string",
          "name": "",
          "type": "string"
        }
      ],
      "stateMutability": "view",
      "type": "function"
    },
    {
      "inputs": [
        {
          "internalType": "uint256",
          "name": "tokenId",
          "type": "uint256"
        }
      ],
      "name": "ownerOf",
      "outputs": [
        {
          "internalType": "address",
          "name": "",
          "type": "address"
        }
      ],
      "stateMutability": "view",
      "type": "function"
    },
    {
      "inputs": [
        {
          "internalType": "bytes4",
          "name": "interfaceId",
          "type": "bytes4"
        }
      ],
      "name": "supportsInterface",
      "outputs": [
        {
          "internalType": "bool",
          "name": "",
          "type": "bool"
        }
      ],
      "stateMutability": "view",
      "type": "function"
    },
    {
      "inputs": [],
      "name": "symbol",
      "outputs": [
        {
          "internalType": "string",
          "name": "",
          "type": "string"
        }
      ],
      "stateMutability": "view",
      "type": "function"
    },
    {
      "inputs": [
        {
          "internalType": "address",
          "name": "_owner",
          "type": "address"
        },
        {
          "internalType": "uint256",
          "name": "_index",
          "type": "uint256"
        }
      ],
      "name": "tokenOfOwnerByIndex",
      "outputs": [
        {
          "internalType": "uint256",
          "name": "",
          "type": "uint256"
        }
      ],
      "stateMutability": "view",
      "type": "function"
    },
    {
      "inputs": [
        {
          "internalType": "uint256",
          "name": "tokenId",
          "type": "uint256"
        }
      ],
      "name": "tokenURI",
      "outputs": [
        {
          "internalType": "string",
          "name": "",
          "type": "string"
        }
      ],
      "stateMutability": "view",
      "type": "function"
    },
    {
      "inputs": [],
      "name": "totalSupply",
      "outputs": [
        {
          "internalType": "uint256",
          "name": "",
          "type": "uint256"
        }
      ],
      "stateMutability": "view",
      "type": "function"
    }
  ],
  "bytecode": "0x60806040523480156200001157600080fd5b506040518060400160405280601181526020017f416e696d616c43657274696669636174650000000000000000000000000000008152506040518060400160405280601281526020017f414e494d414c5f434552544946494341544500000000000000000000000000008152508181620000986301ffc9a760e01b6200011c60201b60201c565b620000b06380ac58cd60e01b6200011c60201b60201c565b620000c863780e9d6360e01b6200011c60201b60201c565b8160099080519060200190620000e092919062000225565b5080600a9080519060200190620000f992919062000225565b5062000112635b5e139f60e01b6200011c60201b60201c565b50505050620002d4565b63ffffffff60e01b817bffffffffffffffffffffffffffffffffffffffffffffffffffffffff19161415620001b9576040517f08c379a000000000000000000000000000000000000000000000000000000000815260040180806020018281038252601c8152602001807f4552433136353a20696e76616c696420696e746572666163652069640000000081525060200191505060405180910390fd5b6001600080837bffffffffffffffffffffffffffffffffffffffffffffffffffffffff19167bffffffffffffffffffffffffffffffffffffffffffffffffffffffff1916815260200190815260200160002060006101000a81548160ff02191690831515021790555050565b828054600181600116156101000203166002900490600052602060002090601f016020900481019282601f106200026857805160ff191683800117855562000299565b8280016001018555821562000299579182015b82811115620002985782518255916020019190600101906200027b565b5b509050620002a89190620002ac565b5090565b620002d191905b80821115620002cd576000816000905550600101620002b3565b5090565b90565b613adf80620002e46000396000f3fe608060405234801561001057600080fd5b50600436106101585760003560e01c80636c0360eb116100c35780639c3f52371161007c5780639c3f5237146108f1578063a22cb46514610929578063b88d4fde14610979578063c87b56dd14610a7e578063e985e9c514610b25578063fc02814214610ba157610158565b80636c0360eb1461062457806370a08231146106a75780638c6f2b57146106ff57806392c4114e1461072d57806395d89b411461076f578063998dd3ca146107f257610158565b80632f745c59116101155780632f745c591461038d5780633465d8f2146103ef57806342842e0e146104275780634569566b146104955780634f6ccce7146105745780636352211e146105b657610158565b806301ffc9a71461015d57806306fdde03146101c2578063081812fc14610245578063095ea7b3146102b357806318160ddd1461030157806323b872dd1461031f575b600080fd5b6101a86004803603602081101561017357600080fd5b8101908080357bffffffffffffffffffffffffffffffffffffffffffffffffffffffff19169060200190929190505050610bd9565b604051808215151515815260200191505060405180910390f35b6101ca610c40565b6040518080602001828103825283818151815260200191508051906020019080838360005b8381101561020a5780820151818401526020810190506101ef565b50505050905090810190601f1680156102375780820380516001836020036101000a031916815260200191505b509250505060405180910390f35b6102716004803603602081101561025b57600080fd5b8101908080359060200190929190505050610ce2565b604051808273ffffffffffffffffffffffffffffffffffffffff1673ffffffffffffffffffffffffffffffffffffffff16815260200191505060405180910390f35b6102ff600480360360408110156102c957600080fd5b81019080803573ffffffffffffffffffffffffffffffffffffffff16906020019092919080359060200190929190505050610d7d565b005b610309610f64565b6040518082815260200191505060405180910390f35b61038b6004803603606081101561033557600080fd5b81019080803573ffffffffffffffffffffffffffffffffffffffff169060200190929190803573ffffffffffffffffffffffffffffffffffffffff16906020019092919080359060200190929190505050610f71565b005b6103d9600480360360408110156103a357600080fd5b81019080803573ffffffffffffffffffffffffffffffffffffffff16906020019092919080359060200190929190505050610fe7565b6040518082815260200191505060405180910390f35b6104256004803603604081101561040557600080fd5b8101908080359060200190929190803590602001909291905050506110a6565b005b6104936004803603606081101561043d57600080fd5b81019080803573ffffffffffffffffffffffffffffffffffffffff169060200190929190803573ffffffffffffffffffffffffffffffffffffffff16906020019092919080359060200190929190505050611283565b005b610572600480360360808110156104ab57600080fd5b81019080803560ff169060200190929190803560ff169060200190929190803590602001906401000000008111156104e257600080fd5b8201836020820111156104f457600080fd5b8035906020019184600183028401116401000000008311171561051657600080fd5b91908080601f016020809104026020016040519081016040528093929190818152602001838380828437600081840152601f19601f820116905080830192505050505050509192919290803590602001909291905050506112a3565b005b6105a06004803603602081101561058a57600080fd5b810190808035906020019092919050505061140d565b6040518082815260200191505060405180910390f35b6105e2600480360360208110156105cc57600080fd5b810190808035906020019092919050505061148d565b604051808273ffffffffffffffffffffffffffffffffffffffff1673ffffffffffffffffffffffffffffffffffffffff16815260200191505060405180910390f35b61062c611555565b6040518080602001828103825283818151815260200191508051906020019080838360005b8381101561066c578082015181840152602081019050610651565b50505050905090810190601f1680156106995780820380516001836020036101000a031916815260200191505b509250505060405180910390f35b6106e9600480360360208110156106bd57600080fd5b81019080803573ffffffffffffffffffffffffffffffffffffffff1690602001909291905050506115f7565b6040518082815260200191505060405180910390f35b61072b6004803603602081101561071557600080fd5b81019080803590602001909291905050506116cc565b005b61076d6004803603606081101561074357600080fd5b8101908080359060200190929190803590602001909291908035906020019092919050505061182f565b005b610777611b07565b6040518080602001828103825283818151815260200191508051906020019080838360005b838110156107b757808201518184015260208101905061079c565b50505050905090810190601f1680156107e45780820380516001836020036101000a031916815260200191505b509250505060405180910390f35b61081e6004803603602081101561080857600080fd5b8101908080359060200190929190505050611ba9565b604051808a81526020018981526020018881526020018715151515815260200186600281111561084a57fe5b60ff1681526020018060200185600181111561086257fe5b60ff168152602001848152602001838152602001828103825286818151815260200191508051906020019080838360005b838110156108ae578082015181840152602081019050610893565b50505050905090810190601f1680156108db5780820380516001836020036101000a031916815260200191505b509a505050505050505050505060405180910390f35b6109276004803603604081101561090757600080fd5b810190808035906020019092919080359060200190929190505050611cc3565b005b6109776004803603604081101561093f57600080fd5b81019080803573ffffffffffffffffffffffffffffffffffffffff16906020019092919080351515906020019092919050505061211e565b005b610a7c6004803603608081101561098f57600080fd5b81019080803573ffffffffffffffffffffffffffffffffffffffff169060200190929190803573ffffffffffffffffffffffffffffffffffffffff16906020019092919080359060200190929190803590602001906401000000008111156109f657600080fd5b820183602082011115610a0857600080fd5b80359060200191846001830284011164010000000083111715610a2a57600080fd5b91908080601f016020809104026020016040519081016040528093929190818152602001838380828437600081840152601f19601f8201169050808301925050505050505091929192905050506122d6565b005b610aaa60048036036020811015610a9457600080fd5b810190808035906020019092919050505061234e565b6040518080602001828103825283818151815260200191508051906020019080838360005b83811015610aea578082015181840152602081019050610acf565b50505050905090810190601f168015610b175780820380516001836020036101000a031916815260200191505b509250505060405180910390f35b610b8760048036036040811015610b3b57600080fd5b81019080803573ffffffffffffffffffffffffffffffffffffffff169060200190929190803573ffffffffffffffffffffffffffffffffffffffff169060200190929190505050612550565b604051808215151515815260200191505060405180910390f35b610bd760048036036040811015610bb757600080fd5b8101908080359060200190929190803590602001909291905050506125e4565b005b6000806000837bffffffffffffffffffffffffffffffffffffffffffffffffffffffff19167bffffffffffffffffffffffffffffffffffffffffffffffffffffffff1916815260200190815260200160002060009054906101000a900460ff169050919050565b606060098054600181600116156101000203166002900480601f016020809104026020016040519081016040528092919081815260200182805460018160011615610100020316600290048015610cd85780601f10610cad57610100808354040283529160200191610cd8565b820191906000526020600020905b815481529060010190602001808311610cbb57829003601f168201915b5050505050905090565b6000610ced826126ba565b610d42576040517f08c379a000000000000000000000000000000000000000000000000000000000815260040180806020018281038252602c815260200180613987602c913960400191505060405180910390fd5b6002600083815260200190815260200160002060009054906101000a900473ffffffffffffffffffffffffffffffffffffffff169050919050565b6000610d888261148d565b90508073ffffffffffffffffffffffffffffffffffffffff168373ffffffffffffffffffffffffffffffffffffffff161415610e0f576040517f08c379a0000000000000000000000000000000000000000000000000000000008152600401808060200182810382526021815260200180613a0b6021913960400191505060405180910390fd5b8073ffffffffffffffffffffffffffffffffffffffff16610e2e61272c565b73ffffffffffffffffffffffffffffffffffffffff161480610e5d5750610e5c81610e5761272c565b612550565b5b610eb2576040517f08c379a00000000000000000000000000000000000000000000000000000000081526004018080602001828103825260388152602001806138fc6038913960400191505060405180910390fd5b826002600084815260200190815260200160002060006101000a81548173ffffffffffffffffffffffffffffffffffffffff021916908373ffffffffffffffffffffffffffffffffffffffff160217905550818373ffffffffffffffffffffffffffffffffffffffff168273ffffffffffffffffffffffffffffffffffffffff167f8c5be1e5ebec7d5bd14f71427d1e84f3dd0314c0f7b2291e5b200ac8c7c3b92560405160405180910390a4505050565b6000600780549050905090565b610f82610f7c61272c565b82612734565b610fd7576040517f08c379a0000000000000000000000000000000000000000000000000000000008152600401808060200182810382526031815260200180613a4e6031913960400191505060405180910390fd5b610fe2838383612828565b505050565b6000610ff2836115f7565b8210611049576040517f08c379a000000000000000000000000000000000000000000000000000000000815260040180806020018281038252602b81526020018061384f602b913960400191505060405180910390fd5b600560008473ffffffffffffffffffffffffffffffffffffffff1673ffffffffffffffffffffffffffffffffffffffff168152602001908152602001600020828154811061109357fe5b9060005260206000200154905092915050565b3373ffffffffffffffffffffffffffffffffffffffff166110c68361148d565b73ffffffffffffffffffffffffffffffffffffffff161461114f576040517f08c379a00000000000000000000000000000000000000000000000000000000081526004018080602001828103825260208152602001807f616e696d616c206973206e6f74206f776e656420627920526571756573746f7281525060200191505060405180910390fd5b6000600d838154811061115e57fe5b90600052602060002090600802019050818160020154146111e7576040517f08c379a00000000000000000000000000000000000000000000000000000000081526004018080602001828103825260148152602001807f756e6b6e6f776e206d61746520706172746e657200000000000000000000000081525060200191505060405180910390fd5b6000816007015414611261576040517f08c379a00000000000000000000000000000000000000000000000000000000081526004018080602001828103825260208152602001807f63616e277420636f6e6669726d2070726567616e6379207768656e206465616481525060200191505060405180910390fd5b60018160030160006101000a81548160ff021916908315150217905550505050565b61129e838383604051806020016040528060008152506122d6565b505050565b6112ab613719565b848160c0019060018111156112bc57fe5b908160018111156112c957fe5b8152505083816080019060028111156112de57fe5b908160028111156112eb57fe5b81525050828160a00181905250818160e001818152505060006001600d839080600181540180825580915050906001820390600052602060002090600802016000909192909190915060008201518160000155602082015181600101556040820151816002015560608201518160030160006101000a81548160ff02191690831515021790555060808201518160030160016101000a81548160ff0219169083600281111561139657fe5b021790555060a08201518160040190805190602001906113b792919061377d565b5060c08201518160050160006101000a81548160ff021916908360018111156113dc57fe5b021790555060e0820151816006015561010082015181600701555050039050611405338261284c565b505050505050565b6000611417610f64565b821061146e576040517f08c379a000000000000000000000000000000000000000000000000000000000815260040180806020018281038252602c815260200180613a7f602c913960400191505060405180910390fd5b6007828154811061147b57fe5b90600052602060002001549050919050565b6000806001600084815260200190815260200160002060009054906101000a900473ffffffffffffffffffffffffffffffffffffffff169050600073ffffffffffffffffffffffffffffffffffffffff168173ffffffffffffffffffffffffffffffffffffffff16141561154c576040517f08c379a000000000000000000000000000000000000000000000000000000000815260040180806020018281038252602981526020018061395e6029913960400191505060405180910390fd5b80915050919050565b6060600b8054600181600116156101000203166002900480601f0160208091040260200160405190810160405280929190818152602001828054600181600116156101000203166002900480156115ed5780601f106115c2576101008083540402835291602001916115ed565b820191906000526020600020905b8154815290600101906020018083116115d057829003601f168201915b5050505050905090565b60008073ffffffffffffffffffffffffffffffffffffffff168273ffffffffffffffffffffffffffffffffffffffff16141561167e576040517f08c379a000000000000000000000000000000000000000000000000000000000815260040180806020018281038252602a815260200180613934602a913960400191505060405180910390fd5b6116c5600360008473ffffffffffffffffffffffffffffffffffffffff1673ffffffffffffffffffffffffffffffffffffffff16815260200190815260200160002061286d565b9050919050565b3373ffffffffffffffffffffffffffffffffffffffff166116ec8261148d565b73ffffffffffffffffffffffffffffffffffffffff1614611775576040517f08c379a00000000000000000000000000000000000000000000000000000000081526004018080602001828103825260208152602001807f616e696d616c206973206e6f74206f776e656420627920526571756573746f7281525060200191505060405180910390fd5b6000600d828154811061178457fe5b90600052602060002090600802019050600081600701541461180e576040517f08c379a00000000000000000000000000000000000000000000000000000000081526004018080602001828103825260208152602001807f63616e277420636f6e6669726d2070726567616e6379207768656e206465616481525060200191505060405180910390fd5b60008160030160006101000a81548160ff0219169083151502179055505050565b3373ffffffffffffffffffffffffffffffffffffffff1661184f8461148d565b73ffffffffffffffffffffffffffffffffffffffff16146118d8576040517f08c379a00000000000000000000000000000000000000000000000000000000081526004018080602001828103825260208152602001807f616e696d616c206973206e6f74206f776e656420627920526571756573746f7281525060200191505060405180910390fd5b6000600d84815481106118e757fe5b906000526020600020906008020190506000816007015414611971576040517f08c379a000000000000000000000000000000000000000000000000000000000815260040180806020018281038252601a8152602001807f63616e27742067697665206269727468207768656e206465616400000000000081525060200191505060405180910390fd5b600115158160030160009054906101000a900460ff161515146119df576040517f08c379a0000000000000000000000000000000000000000000000000000000008152600401808060200182810382526022815260200180613a2c6022913960400191505060405180910390fd5b6060816004018054600181600116156101000203166002900480601f016020809104026020016040519081016040528092919081815260200182805460018160011615610100020316600290048015611a795780601f10611a4e57610100808354040283529160200191611a79565b820191906000526020600020905b815481529060010190602001808311611a5c57829003601f168201915b5050505050905060008090505b83811215611abf57611ab260008460030160019054906101000a900460ff1684428a886002015461287b565b8080600101915050611a86565b5060008090505b84811215611aff57611af260018460030160019054906101000a900460ff1684428a886002015461287b565b8080600101915050611ac6565b505050505050565b6060600a8054600181600116156101000203166002900480601f016020809104026020016040519081016040528092919081815260200182805460018160011615610100020316600290048015611b9f5780601f10611b7457610100808354040283529160200191611b9f565b820191906000526020600020905b815481529060010190602001808311611b8257829003601f168201915b5050505050905090565b600d8181548110611bb657fe5b90600052602060002090600802016000915090508060000154908060010154908060020154908060030160009054906101000a900460ff16908060030160019054906101000a900460ff1690806004018054600181600116156101000203166002900480601f016020809104026020016040519081016040528092919081815260200182805460018160011615610100020316600290048015611c9a5780601f10611c6f57610100808354040283529160200191611c9a565b820191906000526020600020905b815481529060010190602001808311611c7d57829003601f168201915b5050505050908060050160009054906101000a900460ff16908060060154908060070154905089565b6000600d8281548110611cd257fe5b90600052602060002090600802019050600180811115611cee57fe5b8160050160009054906101000a900460ff166001811115611d0b57fe5b14611d7e576040517f08c379a000000000000000000000000000000000000000000000000000000000815260040180806020018281038252601a8152602001807f726571756573746564206d616c65206973206e6f74206d616c6500000000000081525060200191505060405180910390fd5b3373ffffffffffffffffffffffffffffffffffffffff16611d9e8361148d565b73ffffffffffffffffffffffffffffffffffffffff1614611e27576040517f08c379a00000000000000000000000000000000000000000000000000000000081526004018080602001828103825260208152602001807f616e696d616c206973206e6f74206f776e656420627920526571756573746f7281525060200191505060405180910390fd5b6000600d8481548110611e3657fe5b9060005260206000209060080201905060006001811115611e5357fe5b8160050160009054906101000a900460ff166001811115611e7057fe5b14611ee3576040517f08c379a000000000000000000000000000000000000000000000000000000000815260040180806020018281038252601e8152602001807f7265717565737465642066656d616c65206973206e6f742066656d616c65000081525060200191505060405180910390fd5b8060030160019054906101000a900460ff166002811115611f0057fe5b8260030160019054906101000a900460ff166002811115611f1d57fe5b14611f90576040517f08c379a00000000000000000000000000000000000000000000000000000000081526004018080602001828103825260128152602001807f63616e2774206d6978207370656369657321000000000000000000000000000081525060200191505060405180910390fd5b600015158160030160009054906101000a900460ff1615151461201b576040517f08c379a000000000000000000000000000000000000000000000000000000000815260040180806020018281038252601a8152602001807f66656d616c6520697320616c726561647920707265676e616e7400000000000081525060200191505060405180910390fd5b6000826007015414612095576040517f08c379a00000000000000000000000000000000000000000000000000000000081526004018080602001828103825260148152602001807f63616e2774206d6174652077697468206465616400000000000000000000000081525060200191505060405180910390fd5b600081600701541461210f576040517f08c379a00000000000000000000000000000000000000000000000000000000081526004018080602001828103825260148152602001807f63616e2774206d6174652077697468206465616400000000000000000000000081525060200191505060405180910390fd5b82816002018190555050505050565b61212661272c565b73ffffffffffffffffffffffffffffffffffffffff168273ffffffffffffffffffffffffffffffffffffffff1614156121c7576040517f08c379a00000000000000000000000000000000000000000000000000000000081526004018080602001828103825260198152602001807f4552433732313a20617070726f766520746f2063616c6c65720000000000000081525060200191505060405180910390fd5b80600460006121d461272c565b73ffffffffffffffffffffffffffffffffffffffff1673ffffffffffffffffffffffffffffffffffffffff16815260200190815260200160002060008473ffffffffffffffffffffffffffffffffffffffff1673ffffffffffffffffffffffffffffffffffffffff16815260200190815260200160002060006101000a81548160ff0219169083151502179055508173ffffffffffffffffffffffffffffffffffffffff1661228161272c565b73ffffffffffffffffffffffffffffffffffffffff167f17307eab39ab6107e8899845ad3d59bd9653f200f220920489ca2b5937696c3183604051808215151515815260200191505060405180910390a35050565b6122e76122e161272c565b83612734565b61233c576040517f08c379a0000000000000000000000000000000000000000000000000000000008152600401808060200182810382526031815260200180613a4e6031913960400191505060405180910390fd5b612348848484846129fb565b50505050565b6060612359826126ba565b6123ae576040517f08c379a000000000000000000000000000000000000000000000000000000000815260040180806020018281038252602f8152602001806139dc602f913960400191505060405180910390fd5b6060600c60008481526020019081526020016000208054600181600116156101000203166002900480601f0160208091040260200160405190810160405280929190818152602001828054600181600116156101000203166002900480156124575780601f1061242c57610100808354040283529160200191612457565b820191906000526020600020905b81548152906001019060200180831161243a57829003601f168201915b50505050509050600081511415612480576040518060200160405280600081525091505061254b565b600b8160405160200180838054600181600116156101000203166002900480156124e15780601f106124bf5761010080835404028352918201916124e1565b820191906000526020600020905b8154815290600101906020018083116124cd575b505082805190602001908083835b6020831061251257805182526020820191506020810190506020830392506124ef565b6001836020036101000a038019825116818451168082178552505050505050905001925050506040516020818303038152906040529150505b919050565b6000600460008473ffffffffffffffffffffffffffffffffffffffff1673ffffffffffffffffffffffffffffffffffffffff16815260200190815260200160002060008373ffffffffffffffffffffffffffffffffffffffff1673ffffffffffffffffffffffffffffffffffffffff16815260200190815260200160002060009054906101000a900460ff16905092915050565b3373ffffffffffffffffffffffffffffffffffffffff166126048361148d565b73ffffffffffffffffffffffffffffffffffffffff161461268d576040517f08c379a00000000000000000000000000000000000000000000000000000000081526004018080602001828103825260208152602001807f616e696d616c206973206e6f74206f776e656420627920526571756573746f7281525060200191505060405180910390fd5b6000600d838154811061269c57fe5b90600052602060002090600802019050818160070181905550505050565b6000806001600084815260200190815260200160002060009054906101000a900473ffffffffffffffffffffffffffffffffffffffff169050600073ffffffffffffffffffffffffffffffffffffffff168173ffffffffffffffffffffffffffffffffffffffff161415915050919050565b600033905090565b600061273f826126ba565b612794576040517f08c379a000000000000000000000000000000000000000000000000000000000815260040180806020018281038252602c8152602001806138d0602c913960400191505060405180910390fd5b600061279f8361148d565b90508073ffffffffffffffffffffffffffffffffffffffff168473ffffffffffffffffffffffffffffffffffffffff16148061280e57508373ffffffffffffffffffffffffffffffffffffffff166127f684610ce2565b73ffffffffffffffffffffffffffffffffffffffff16145b8061281f575061281e8185612550565b5b91505092915050565b612833838383612a6d565b61283d8382612cc8565b6128478282612e66565b505050565b6128568282612f2d565b6128608282612e66565b61286981613145565b5050565b600081600001549050919050565b612883613719565b868160c00190600181111561289457fe5b908160018111156128a157fe5b8152505085816080019060028111156128b657fe5b908160028111156128c357fe5b81525050848160a00181905250838160e0018181525050828160000181815250508181602001818152505060006001600d839080600181540180825580915050906001820390600052602060002090600802016000909192909190915060008201518160000155602082015181600101556040820151816002015560608201518160030160006101000a81548160ff02191690831515021790555060808201518160030160016101000a81548160ff0219169083600281111561298257fe5b021790555060a08201518160040190805190602001906129a392919061377d565b5060c08201518160050160006101000a81548160ff021916908360018111156129c857fe5b021790555060e08201518160060155610100820151816007015550500390506129f1338261284c565b5050505050505050565b612a06848484612828565b612a1284848484613191565b612a67576040517f08c379a000000000000000000000000000000000000000000000000000000000815260040180806020018281038252603281526020018061387a6032913960400191505060405180910390fd5b50505050565b8273ffffffffffffffffffffffffffffffffffffffff16612a8d8261148d565b73ffffffffffffffffffffffffffffffffffffffff1614612af9576040517f08c379a00000000000000000000000000000000000000000000000000000000081526004018080602001828103825260298152602001806139b36029913960400191505060405180910390fd5b600073ffffffffffffffffffffffffffffffffffffffff168273ffffffffffffffffffffffffffffffffffffffff161415612b7f576040517f08c379a00000000000000000000000000000000000000000000000000000000081526004018080602001828103825260248152602001806138ac6024913960400191505060405180910390fd5b612b88816134cd565b612bcf600360008573ffffffffffffffffffffffffffffffffffffffff1673ffffffffffffffffffffffffffffffffffffffff16815260200190815260200160002061358b565b612c16600360008473ffffffffffffffffffffffffffffffffffffffff1673ffffffffffffffffffffffffffffffffffffffff1681526020019081526020016000206135ae565b816001600083815260200190815260200160002060006101000a81548173ffffffffffffffffffffffffffffffffffffffff021916908373ffffffffffffffffffffffffffffffffffffffff160217905550808273ffffffffffffffffffffffffffffffffffffffff168473ffffffffffffffffffffffffffffffffffffffff167fddf252ad1be2c89b69c2b068fc378daa952ba7f163c4a11628f55a4df523b3ef60405160405180910390a4505050565b6000612d206001600560008673ffffffffffffffffffffffffffffffffffffffff1673ffffffffffffffffffffffffffffffffffffffff168152602001908152602001600020805490506135c490919063ffffffff16565b9050600060066000848152602001908152602001600020549050818114612e0d576000600560008673ffffffffffffffffffffffffffffffffffffffff1673ffffffffffffffffffffffffffffffffffffffff1681526020019081526020016000208381548110612d8d57fe5b9060005260206000200154905080600560008773ffffffffffffffffffffffffffffffffffffffff1673ffffffffffffffffffffffffffffffffffffffff1681526020019081526020016000208381548110612de557fe5b9060005260206000200181905550816006600083815260200190815260200160002081905550505b600560008573ffffffffffffffffffffffffffffffffffffffff1673ffffffffffffffffffffffffffffffffffffffff168152602001908152602001600020805480919060019003612e5f91906137fd565b5050505050565b600560008373ffffffffffffffffffffffffffffffffffffffff1673ffffffffffffffffffffffffffffffffffffffff168152602001908152602001600020805490506006600083815260200190815260200160002081905550600560008373ffffffffffffffffffffffffffffffffffffffff1673ffffffffffffffffffffffffffffffffffffffff1681526020019081526020016000208190806001815401808255809150509060018203906000526020600020016000909192909190915055505050565b600073ffffffffffffffffffffffffffffffffffffffff168273ffffffffffffffffffffffffffffffffffffffff161415612fd0576040517f08c379a00000000000000000000000000000000000000000000000000000000081526004018080602001828103825260208152602001807f4552433732313a206d696e7420746f20746865207a65726f206164647265737381525060200191505060405180910390fd5b612fd9816126ba565b1561304c576040517f08c379a000000000000000000000000000000000000000000000000000000000815260040180806020018281038252601c8152602001807f4552433732313a20746f6b656e20616c7265616479206d696e7465640000000081525060200191505060405180910390fd5b816001600083815260200190815260200160002060006101000a81548173ffffffffffffffffffffffffffffffffffffffff021916908373ffffffffffffffffffffffffffffffffffffffff1602179055506130e5600360008473ffffffffffffffffffffffffffffffffffffffff1673ffffffffffffffffffffffffffffffffffffffff1681526020019081526020016000206135ae565b808273ffffffffffffffffffffffffffffffffffffffff16600073ffffffffffffffffffffffffffffffffffffffff167fddf252ad1be2c89b69c2b068fc378daa952ba7f163c4a11628f55a4df523b3ef60405160405180910390a45050565b6007805490506008600083815260200190815260200160002081905550600781908060018154018082558091505090600182039060005260206000200160009091929091909150555050565b60006131b28473ffffffffffffffffffffffffffffffffffffffff1661360e565b6131bf57600190506134c5565b600060608573ffffffffffffffffffffffffffffffffffffffff168673ffffffffffffffffffffffffffffffffffffffff1663150b7a02905060e01b61320361272c565b898888604051602401808573ffffffffffffffffffffffffffffffffffffffff1673ffffffffffffffffffffffffffffffffffffffff1681526020018473ffffffffffffffffffffffffffffffffffffffff1673ffffffffffffffffffffffffffffffffffffffff16815260200183815260200180602001828103825283818151815260200191508051906020019080838360005b838110156132b3578082015181840152602081019050613298565b50505050905090810190601f1680156132e05780820380516001836020036101000a031916815260200191505b5095505050505050604051602081830303815290604052907bffffffffffffffffffffffffffffffffffffffffffffffffffffffff19166020820180517bffffffffffffffffffffffffffffffffffffffffffffffffffffffff83818316178352505050506040518082805190602001908083835b602083106133785780518252602082019150602081019050602083039250613355565b6001836020036101000a0380198251168184511680821785525050505050509050019150506000604051808303816000865af19150503d80600081146133da576040519150601f19603f3d011682016040523d82523d6000602084013e6133df565b606091505b50915091508161344d576000815111156133fc5780518082602001fd5b6040517f08c379a000000000000000000000000000000000000000000000000000000000815260040180806020018281038252603281526020018061387a6032913960400191505060405180910390fd5b600081806020019051602081101561346457600080fd5b8101908080519060200190929190505050905063150b7a0260e01b7bffffffffffffffffffffffffffffffffffffffffffffffffffffffff1916817bffffffffffffffffffffffffffffffffffffffffffffffffffffffff19161493505050505b949350505050565b600073ffffffffffffffffffffffffffffffffffffffff166002600083815260200190815260200160002060009054906101000a900473ffffffffffffffffffffffffffffffffffffffff1673ffffffffffffffffffffffffffffffffffffffff16146135885760006002600083815260200190815260200160002060006101000a81548173ffffffffffffffffffffffffffffffffffffffff021916908373ffffffffffffffffffffffffffffffffffffffff1602179055505b50565b6135a3600182600001546135c490919063ffffffff16565b816000018190555050565b6001816000016000828254019250508190555050565b600061360683836040518060400160405280601e81526020017f536166654d6174683a207375627472616374696f6e206f766572666c6f770000815250613659565b905092915050565b60008060007fc5d2460186f7233c927e7db2dcc703c0e500b653ca82273b7bfad8045d85a47060001b9050833f915080821415801561365057506000801b8214155b92505050919050565b6000838311158290613706576040517f08c379a00000000000000000000000000000000000000000000000000000000081526004018080602001828103825283818151815260200191508051906020019080838360005b838110156136cb5780820151818401526020810190506136b0565b50505050905090810190601f1680156136f85780820380516001836020036101000a031916815260200191505b509250505060405180910390fd5b5060008385039050809150509392505050565b6040518061012001604052806000815260200160008152602001600081526020016000151581526020016000600281111561375057fe5b8152602001606081526020016000600181111561376957fe5b815260200160008152602001600081525090565b828054600181600116156101000203166002900490600052602060002090601f016020900481019282601f106137be57805160ff19168380011785556137ec565b828001600101855582156137ec579182015b828111156137eb5782518255916020019190600101906137d0565b5b5090506137f99190613829565b5090565b815481835581811115613824578183600052602060002091820191016138239190613829565b5b505050565b61384b91905b8082111561384757600081600090555060010161382f565b5090565b9056fe455243373231456e756d657261626c653a206f776e657220696e646578206f7574206f6620626f756e64734552433732313a207472616e7366657220746f206e6f6e20455243373231526563656976657220696d706c656d656e7465724552433732313a207472616e7366657220746f20746865207a65726f20616464726573734552433732313a206f70657261746f7220717565727920666f72206e6f6e6578697374656e7420746f6b656e4552433732313a20617070726f76652063616c6c6572206973206e6f74206f776e6572206e6f7220617070726f76656420666f7220616c6c4552433732313a2062616c616e636520717565727920666f7220746865207a65726f20616464726573734552433732313a206f776e657220717565727920666f72206e6f6e6578697374656e7420746f6b656e4552433732313a20617070726f76656420717565727920666f72206e6f6e6578697374656e7420746f6b656e4552433732313a207472616e73666572206f6620746f6b656e2074686174206973206e6f74206f776e4552433732314d657461646174613a2055524920717565727920666f72206e6f6e6578697374656e7420746f6b656e4552433732313a20617070726f76616c20746f2063757272656e74206f776e657263616e27742067697665206269727468207768656e206e6f7420707265676e616e744552433732313a207472616e736665722063616c6c6572206973206e6f74206f776e6572206e6f7220617070726f766564455243373231456e756d657261626c653a20676c6f62616c20696e646578206f7574206f6620626f756e6473a265627a7a72315820b78a9a2756db6fdd9602dfb07e7e6bc545c2fa3acd1f7f4737511575fe66d61464736f6c63430005100032",
  "source": "//SPDX-License-Identifier: UNLICENSED\n\npragma solidity ^0.5.0;\nimport './ERC721.sol';\n\n\n// A contract is a collection of functions and data (its state).\n// Once deployed, a contract resides at a specific address on the Ethereum blockchain.\n// Learn more: https://solidity.readthedocs.io/en/v0.5.10/structure-of-a-contract.html\ncontract AnimalCertificate is ERC721Full\n{\n    enum Species {\n        dog, // 0\n        cat, // 1\n        hamster //2\n        \n    }\n    \n    enum Gender {\n        F,\n        M\n    }\n    \n    struct Animal {\n        uint mother;\n        uint father; \n        uint matePartner;\n        bool pregnant; \n        Species  species; \n        string breed;\n        Gender  gender;\n        uint256 dateOfBirth;\n        uint256 dateOfDeath;\n    }\n\n\n    Animal[] public animals;\n\n  constructor() ERC721Full(\"AnimalCertificate\", \"ANIMAL_CERTIFICATE\") public {\n  }\n  \n    function mint(Gender  _gender, Species  _species, string memory _breed, uint256 _dateOfBirth) public {\n        Animal memory animal ;\n        animal.gender = _gender;\n        animal.species = _species;\n        animal.breed = _breed;\n        animal.dateOfBirth = _dateOfBirth;\n        uint _id = animals.push(animal)-1;\n        \n        _mint(msg.sender, _id);\n    }\n    \n    function mint(Gender  _gender, Species  _species, string memory _breed, uint256 _dateOfBirth, uint _mother, uint _father) private {\n        Animal memory animal ;\n        animal.gender = _gender;\n        animal.species = _species;\n        animal.breed = _breed;\n        animal.dateOfBirth = _dateOfBirth;\n        animal.mother = _mother; \n        animal.father = _father;\n        uint _id = animals.push(animal)-1;\n        \n        _mint(msg.sender, _id);\n    }\n\n\n    function mate( uint _tokenIdFemale, uint _tokenIdMale) public{\n        Animal storage male = animals[_tokenIdMale];\n        require(male.gender == Gender.M, \"requested male is not male\");\n        require(ownerOf(_tokenIdMale) == msg.sender, \"animal is not owned by Requestor\");\n        Animal storage female = animals[_tokenIdFemale];\n        require(female.gender == Gender.F, \"requested female is not female\");\n        require(male.species == female.species, \"can't mix species!\");\n        require(female.pregnant == false, \"female is already pregnant\");\n\n        require(male.dateOfDeath == 0, \"can't mate with dead\");\n        require(female.dateOfDeath == 0, \"can't mate with dead\");\n        \n        female.matePartner = _tokenIdMale;\n        \n    }\n    \n    function confirmPregnancy( uint _tokenIdFemale, uint _tokenIdMale) public {\n        require(ownerOf(_tokenIdFemale) == msg.sender, \"animal is not owned by Requestor\");\n        Animal storage female = animals[_tokenIdFemale];\n        require(female.matePartner == _tokenIdMale, \"unknown mate partner\");\n        require(female.dateOfDeath == 0, \"can't confirm pregancy when dead\");\n\n        \n        female.pregnant = true;\n    }\n    \n    function abortedPregnancy( uint _tokenIdFemale) public {\n        require(ownerOf(_tokenIdFemale) == msg.sender, \"animal is not owned by Requestor\");\n        Animal storage female = animals[_tokenIdFemale];\n        require(female.dateOfDeath == 0, \"can't confirm pregancy when dead\");\n        female.pregnant = false;\n    }\n    \n    function death(uint _tokenId, uint256 _dateOfDeath) public {\n        require(ownerOf(_tokenId) == msg.sender, \"animal is not owned by Requestor\");\n        Animal storage animal = animals[_tokenId];\n        animal.dateOfDeath = _dateOfDeath;\n    }\n    \n    function birth(uint _tokenId, int _amountMale, int _amountFemale) public {\n        require(ownerOf(_tokenId) == msg.sender, \"animal is not owned by Requestor\");\n        Animal storage animal = animals[_tokenId];\n        require(animal.dateOfDeath == 0, \"can't give birth when dead\");\n        require(animal.pregnant == true, \"can't give birth when not pregnant\");\n        \n        string memory breed = animal.breed; \n        \n        for(int i = 0; i < _amountFemale; i++){\n           mint(Gender.F, animal.species, breed, now, _tokenId, animal.matePartner);\n            \n        }\n        for(int i = 0; i < _amountMale; i++){\n           mint(Gender.M, animal.species, breed, now, _tokenId, animal.matePartner);\n        }\n\n    }\n    \n\n}\n\n\n",
  "sourcePath": "/home/mba/delme/animal-certificate/nft/src/contracts/AnimalCertificate.sol",
  "compiler": {
    "name": "solc",
    "version": "0.5.16+commit.9c3226ce.Emscripten.clang"
  },
  "schemaVersion": "3.4.1",
  "updatedAt": "2021-06-06T20:40:21.933Z",
  "devdoc": {
    "methods": {
      "approve(address,uint256)": {
        "details": "Approves another address to transfer the given token ID The zero address indicates there is no approved address. There can only be one approved address per token at a given time. Can only be called by the token owner or an approved operator.",
        "params": {
          "to": "address to be approved for the given token ID",
          "tokenId": "uint256 ID of the token to be approved"
        }
      },
      "balanceOf(address)": {
        "details": "Gets the balance of the specified address.",
        "params": {
          "owner": "address to query the balance of"
        },
        "return": "uint256 representing the amount owned by the passed address"
      },
      "baseURI()": {
        "details": "Returns the base URI set via {_setBaseURI}. This will be automatically added as a preffix in {tokenURI} to each token's URI, when they are non-empty.    * _Available since v2.5.0._"
      },
      "getApproved(uint256)": {
        "details": "Gets the approved address for a token ID, or zero if no address set Reverts if the token ID does not exist.",
        "params": {
          "tokenId": "uint256 ID of the token to query the approval of"
        },
        "return": "address currently approved for the given token ID"
      },
      "isApprovedForAll(address,address)": {
        "details": "Tells whether an operator is approved by a given owner.",
        "params": {
          "operator": "operator address which you want to query the approval of",
          "owner": "owner address which you want to query the approval of"
        },
        "return": "bool whether the given operator is approved by the given owner"
      },
      "name()": {
        "details": "Gets the token name.",
        "return": "string representing the token name"
      },
      "ownerOf(uint256)": {
        "details": "Gets the owner of the specified token ID.",
        "params": {
          "tokenId": "uint256 ID of the token to query the owner of"
        },
        "return": "address currently marked as the owner of the given token ID"
      },
      "safeTransferFrom(address,address,uint256)": {
        "details": "Safely transfers the ownership of a given token ID to another address If the target address is a contract, it must implement {IERC721Receiver-onERC721Received}, which is called upon a safe transfer, and return the magic value `bytes4(keccak256(\"onERC721Received(address,address,uint256,bytes)\"))`; otherwise, the transfer is reverted. Requires the msg.sender to be the owner, approved, or operator",
        "params": {
          "from": "current owner of the token",
          "to": "address to receive the ownership of the given token ID",
          "tokenId": "uint256 ID of the token to be transferred"
        }
      },
      "safeTransferFrom(address,address,uint256,bytes)": {
        "details": "Safely transfers the ownership of a given token ID to another address If the target address is a contract, it must implement {IERC721Receiver-onERC721Received}, which is called upon a safe transfer, and return the magic value `bytes4(keccak256(\"onERC721Received(address,address,uint256,bytes)\"))`; otherwise, the transfer is reverted. Requires the _msgSender() to be the owner, approved, or operator",
        "params": {
          "_data": "bytes data to send along with a safe transfer check",
          "from": "current owner of the token",
          "to": "address to receive the ownership of the given token ID",
          "tokenId": "uint256 ID of the token to be transferred"
        }
      },
      "setApprovalForAll(address,bool)": {
        "details": "Sets or unsets the approval of a given operator An operator is allowed to transfer all tokens of the sender on their behalf.",
        "params": {
          "approved": "representing the status of the approval to be set",
          "to": "operator address to set the approval"
        }
      },
      "supportsInterface(bytes4)": {
        "details": "See {IERC165-supportsInterface}.     * Time complexity O(1), guaranteed to always use less than 30 000 gas."
      },
      "symbol()": {
        "details": "Gets the token symbol.",
        "return": "string representing the token symbol"
      },
      "tokenByIndex(uint256)": {
        "details": "Gets the token ID at a given index of all the tokens in this contract Reverts if the index is greater or equal to the total number of tokens.",
        "params": {
          "index": "uint256 representing the index to be accessed of the tokens list"
        },
        "return": "uint256 token ID at the given index of the tokens list"
      },
      "tokenOfOwnerByIndex(address,uint256)": {
        "details": "Gets the token ID at a given index of the tokens list of the requested owner.",
        "params": {
          "index": "uint256 representing the index to be accessed of the requested tokens list",
          "owner": "address owning the tokens list to be accessed"
        },
        "return": "uint256 token ID at the given index of the tokens list owned by the requested address"
      },
      "tokenURI(uint256)": {
        "details": "Returns the URI for a given token ID. May return an empty string.     * If the token's URI is non-empty and a base URI was set (via {_setBaseURI}), it will be added to the token ID's URI as a prefix.     * Reverts if the token ID does not exist."
      },
      "totalSupply()": {
        "details": "Gets the total amount of tokens stored by the contract.",
        "return": "uint256 representing the total amount of tokens"
      },
      "transferFrom(address,address,uint256)": {
        "details": "Transfers the ownership of a given token ID to another address. Usage of this method is discouraged, use {safeTransferFrom} whenever possible. Requires the msg.sender to be the owner, approved, or operator.",
        "params": {
          "from": "current owner of the token",
          "to": "address to receive the ownership of the given token ID",
          "tokenId": "uint256 ID of the token to be transferred"
        }
      }
    }
  },
  "userdoc": {
    "methods": {}
  }
}